:020000040800F2
:1000000000000520F5110008790700087B070008AB
:100010007D0700087F070008810700080000000036
:10002000000000000000000000000000830700083E
:1000300085070008000000008707000889070008FE
:100040004512000845120008451200084512000834
:100050004512000845120008451200084512000824
:100060004512000845120008451200084512000814
:100070004512000845120008451200084512000804
:1000800045120008451200084512000845120008F4
:1000900045120008451200084512000845120008E4
:1000A00045120008451200084512000845120008D4
:1000B00045120008451200084512000845120008C4
:1000C00045120008451200084512000845120008B4
:1000D00045120008451200084512000845120008A4
:1000E0004512000845120008451200084512000894
:1000F0004512000845120008451200084512000884
:100100004512000845120008451200084512000873
:100110004512000845120008451200084512000863
:100120004512000845120008451200084512000853
:100130004512000845120008451200084512000843
:100140004512000845120008451200084512000833
:100150004512000845120008451200084512000823
:100160004512000845120008451200084512000813
:100170004512000845120008451200084512000803
:1001800045120008451200084512000845120008F3
:1001900045120008451200084512000845120008E3
:1001A00045120008451200084512000845120008D3
:1001B00045120008451200084512000845120008C3
:0801C000451200084512000879
:1001C8000348044B834202D0034B03B118477047DE
:1001D8000C0000200C000020000000000548064923
:1001E800091A891001EBD171491002D0034B03B1F0
:1001F800184770470C0000200C0000200000000089
:1002080010B5064C237843B9FFF7DAFF044B13B156
:100218000448AFF300800123237010BD0C000020B8
:10022800000000004812000808B5044B1BB104493F
:100238000448AFF30080BDE80840CFE700000000A5
:10024800100000204812000870B50D4E0D4D761BA9
:10025800B61006D00024013455F8043B9847A6424E
:10026800F9D1094E094D761B00F0EAFFB61006D009
:100278000024013455F8043B9847A642F9D170BDD3
:1002880078120008781200087C120008781200081A
:10029800F0B4860743D0541E002A3ED0CAB20346A3
:1002A80002E014F1FF3438D303F8012B9D07F8D18D
:1002B800032C2BD9CDB245EA05250F2C45EA054577
:1002C80016D9A4F110073F0903F1200606EB07161B
:1002D80003F1100242E9045542E902551032B242D4
:1002E800F8D104F00F040137032C03EB07130DD9E1
:1002F8001E462246043A032A46F8045BFAD8221F0F
:1003080022F003020432134404F003042CB1C9B2EE
:100318001C4403F8011B9C42FBD1F0BC70471446F7
:100328000346C5E753B94AB9002908BF00281CBFCE
:100338004FF0FF314FF0FF3000F072B9ADF1080C0B
:100348006DE904CE00F006F8DDF804E0DDE90223EB
:1003580004B070472DE9F047089E04468846002BF4
:100368004BD18A42154667D9B2FA82F24AB1C2F134
:10037800200701FA02F320FA07F7954047EA030835
:1003880094404FEA154E230CB8FBFEF71FFA85FC84
:100398000EFB178843EA084307FB0CF1994209D979
:1003A800EB1807F1FF3080F01B81994240F2188169
:1003B800023F2B445B1AA4B2B3FBFEF00EFB1033D2
:1003C80044EA034400FB0CFCA44509D92C1900F1AC
:1003D800FF3380F00781A44540F2048102382C44A1
:1003E80040EA0740A4EB0C0400271EB1D4400023C8
:1003F800C6E900433946BDE8F0878B4209D9002E8B
:1004080000F0EB800027C6E9000138463946BDE810
:10041800F087B3FA83F7002F47D18B4202D3824289
:1004280000F2FA80841A61EB030301209846002E3B
:10043800E0D0C6E90048DDE702B9FFDEB2FA82F291
:10044800002A40F08F80491B4FEA154E1FFA85F8A5
:100458000127B1FBFEFC230C0EFB1C1143EA0143F0
:1004680008FB0CF1994207D9EB180CF1FF3002D2C6
:10047800994200F2CD808446591AA3B2B1FBFEF02E
:100488000EFB101443EA044408FB00F8A04507D902
:100498002C1900F1FF3302D2A04500F2B6801846AD
:1004A800A4EB080440EA0C409FE7C7F1200CBB40CE
:1004B80022FA0CFE4EEA030E01FA07F420FA0CF5B4
:1004C80021FA0CF34FEA1E482543B3FBF8F92C0C2C
:1004D80008FB19331FFA8EFA44EA034309FB0AF4AE
:1004E8009C4202FA07F200FA07F10BD91EEB03034C
:1004F80009F1FF3080F087809C4240F28480A9F1A6
:10050800020973441B1BADB2B3FBF8F008FB1033B0
:1005180045EA034400FB0AFAA24508D91EEB040485
:1005280000F1FF336BD2A24569D90238744440EA1E
:100538000940A0FB0289A4EB0A044C45C2464B467D
:1005480054D351D0002E69D0B1EB0A0564EB0304F3
:1005580004FA0CFCFD40FC404CEA0505C6E90054D1
:10056800002747E7C2F1200320FA03F7954001FA74
:1005780002F021FA03F34FEA154E3843010CB3FB9E
:10058800FEF71FFA85F80EFB173341EA034107FB14
:1005980008F38B4204FA02F407D9691807F1FF3C03
:1005A8002FD28B422DD9023F2944CB1A81B2B3FBFB
:1005B800FEF00EFB103341EA034100FB08F38B42C7
:1005C80007D9691800F1FF3C17D28B4215D90238B8
:1005D8002944C91A40EA07473BE73746304609E746
:1005E8000746E7E61846FBE64145ABD2B8EB020AF8
:1005F80069EB0E0201381346A4E76046E9E718469E
:1006080095E76746D1E781467CE702382C4447E7FF
:10061800ACF1020C2B442FE7384608E73746E9E6E9
:10062800704700BF30B589B0002403940494059442
:1006380006940794164B1A6B42F080021A631A6BE1
:1006480002F080020092009A1A6B42F002021A63CA
:100658001A6B02F002020192019A1A6B42F001022F
:100668001A631B6B03F001030293029B094D224698
:100678000121284600F00AFD012303930493059401
:10068800069403A9284600F013FC09B030BD00BF4A
:10069800003802400004024072B6FEE700B595B08B
:1006A8003022002108A8FFF7F3FD002303930493E9
:1006B800059306930793234B1A6C42F080521A64F1
:1006C8001B6C03F080530193019B1F4B1A6842F483
:1006D80040421A601B6803F440430293029B0123C3
:1006E80008934FF4A023099302230E934FF480023A
:1006F8000F92192210924FF4D872119212931393F9
:1007080008A800F0B3F8B0B900F0D0FCA8B90F23DE
:10071800039302230493002305934FF4A0530693F5
:100728004FF480530793072103A800F00DFB30B95D
:1007380015B05DF804FBFFF7AFFFFFF7ADFFFFF75C
:10074800ABFF00BF003802400070004008B500F061
:1007580011FDFFF7A3FFFFF765FF0121034800F034
:100768009BFC4FF4967000F023FDF6E7000402406E
:10077800FEE7FEE7FEE7FEE7FEE7704770477047D3
:1007880008B500F003FD08BD82B00A4B1A6C42F0B0
:1007980080521A641A6C02F080520092009A5A6CC5
:1007A80042F480425A645B6C03F480430193019BDA
:1007B80002B07047003802400649CB6823F4E06372
:1007C8001B041B0C000200F4E0600343024A1A43B6
:1007D800CA60704700ED00E00000FA0530B4154B20
:1007E800DB68C3F30223C3F10704042C28BF0424E5
:1007F8001D1D062D14D9033B4FF0FF3505FA04F4EF
:1008080021EA0401994005FA03F322EA0303194394
:10081800002807DB0901C9B2074B195430BC7047DF
:100828000023E9E700F00F000901C9B2034B19548E
:10083800F4E700BF00ED00E000E400E014ED00E0A4
:100848000138B0F1807F0AD2064B5860064AF02181
:1008580082F823100020986007221A607047012050
:10086800704700BF10E000E000ED00E0002800F055
:10087800098270B582B00446036813F0010F29D0CD
:10088800A24B9B6803F00C03042B1AD09F4B9B6868
:1008980003F00C03082B0FD06368B3F5803F40D0FA
:1008A800002B54D1994B1A6822F480321A601A68C6
:1008B80022F480221A6039E0944B5B6813F4800FAD
:1008C800EAD0924B1B6813F4003F03D06368002BF7
:1008D80000F0DA81236813F0020F75D08B4B9B6808
:1008E80013F00C0F5ED0894B9B6803F00C03082BA8
:1008F80053D0E368002B00F08A80844A136843F0E1
:100908000103136000F04EFC0546804B1B6813F092
:10091800020F73D100F046FC401B0228F5D90320D2
:10092800B5E17A4A136843F48033136063682BB3E4
:1009380000F038FC0546754B1B6813F4003FC9D11D
:1009480000F030FC401B6428F5D903209FE1B3F583
:10095800A02F09D06D4B1A6822F480321A601A68E9
:1009680022F480221A60E1E7684B1A6842F4802278
:100978001A601A6842F480321A60D7E700F012FC55
:100988000546624B1B6813F4003FA3D000F00AFC35
:10099800401B6428F5D9032079E15C4B5B6813F4AC
:1009A800800FA6D1594B1B6813F0020F04D0E368DF
:1009B800012B01D001206AE1544A136823F0F8039F
:1009C800216943EAC1031360236813F0080F46D076
:1009D800636983B34D4A536F43F00103536700F0D3
:1009E800E1FB0546494B5B6F13F0020F37D100F06E
:1009F800D9FB401B0228F5D9032048E1434A136874
:100A080023F0F803216943EAC1031360DCE73F4A96
:100A1800136823F00103136000F0C4FB05463B4B49
:100A28001B6813F0020FCFD000F0BCFB401B02285C
:100A3800F5D903202BE1354A536F23F0010353679F
:100A480000F0B0FB0546314B5B6F13F0020F06D088
:100A580000F0A8FB401B0228F5D9032017E1236802
:100A680013F0040F7ED0294B1B6C13F0805F1ED14E
:100A7800264B1A6C42F080521A641B6C03F08053A8
:100A88000193019B0125224B1B6813F4807F10D032
:100A9800A368012B21D0002B3CD11C4B1A6F22F0EC
:100AA80001021A671A6F22F004021A671AE0002579
:100AB800E9E7174A136843F48073136000F072FB88
:100AC8000646134B1B6813F4807FE1D100F06AFBE4
:100AD800801B6428F5D90320D9E00C4A136F43F032
:100AE80001031367A3685BB300F05CFB0646074B82
:100AF8001B6F13F0020F34D100F054FB801B41F23E
:100B080088339842F3D90320C1E000BF003802407F
:100B180000700040052B09D0604B1A6F22F00102CB
:100B28001A671A6F22F004021A67DBE75B4B1A6F29
:100B380042F004021A671A6F42F001021A67D1E7FD
:100B480000F030FB0646554B1B6F13F0020F08D020
:100B580000F028FB801B41F288339842F3D9032028
:100B680095E0FDB9A369002B00F090804B4A92688C
:100B780002F00C02082A58D0022B19D0474A1368F1
:100B880023F08073136000F00DFB0446434B1B6891
:100B980013F0007F47D000F005FB001B0228F5D9B1
:100BA800032074E03D4A136C23F080531364D9E7A3
:100BB8003A4A136823F08073136000F0F3FA05468D
:100BC800364B1B6813F0007F06D000F0EBFA401B91
:100BD8000228F5D903205AE0E369226A1343626ABE
:100BE80043EA8213A26A5208013A43EA0243E26ADC
:100BF80043EA026343F00053284A5360136843F002
:100C08008073136000F0CEFA0446244B1B6813F07F
:100C1800007F06D100F0C6FA001B0228F5D9032090
:100C280035E0002033E0002031E01C4A5268012BF7
:100C38002FD002F48003E1698B4201D0012026E025
:100C480002F03F03216A8B4201D001201FE0616A54
:100C580047F6C0731340B3EB811F01D0012016E0A3
:100C680002F44031A36A5B08013BB1EB034F01D0AA
:100C780001200CE002F07062E36AB2EB036F0AD065
:100C8800012004E001207047012000E0002002B0AC
:100C980070BD0120FBE70020F9E700BF00380240E3
:100CA800264B9B6803F00C03042B44D0082B01D07F
:100CB800234870472DE9F04B204B5A6802F03F0259
:100CC8005B6813F4800F13D01C4B5968C1F388116B
:100CD80000231C48A1FB0001FFF724FB174B5B68AE
:100CE800C3F3014301335B00B0FBF3F0BDE8F08BC5
:100CF800124B5B68C3F388131E4600275C0100256E
:100D0800E41A65EB0705A90141EA9461A001001BFB
:100D180061EB0501CB0043EA5073C400A01943EB13
:100D280007018B0243EA90538402204619460023A8
:100D3800FFF7F8FAD2E70348704700BF00380240CF
:100D48000024F40040787D01002800F0A38070B5ED
:100D58000446524B1B6803F00F038B420CD24F4AD8
:100D6800136823F00F030B431360136803F00F039A
:100D78008B4201D0012070BD236813F0020F17D0F9
:100D880013F0040F04D0464A936843F4E053936089
:100D9800236813F0080F04D0414A936843F4604372
:100DA80093603F4A936823F0F003A068034393607D
:100DB8000D46236813F0010F31D06368012B20D052
:100DC800022B25D0364A126812F0020F64D034493B
:100DD8008A6822F0030213438B6000F0E3F90646A9
:100DE8002F4B9B6803F00C036268B3EB820F16D09D
:100DF80000F0D8F9801B41F288339842F0D90320DB
:100E0800B9E7274A126812F4003FE0D10120B2E79F
:100E1800234A126812F0007FD9D10120ABE71F4B9B
:100E28001B6803F00F03AB420CD91C4A136823F06C
:100E38000F032B431360136803F00F03AB4201D079
:100E4800012098E7236813F0040F06D0144A93682A
:100E580023F4E053E1680B439360236813F0080F11
:100E680007D00F4A936823F46043216943EAC1031A
:100E78009360FFF715FF0A4B9B68C3F30313094AF6
:100E8800D35CD840084B1860084B186800F04CF940
:100E9800002070E70120704701206CE7003C024009
:100EA80000380240601200080800002004000020FA
:100EB80000230F2B00F2E180F0B583B039E009225E
:100EC80000E00022B2403A4302346C4E46F8242037
:100ED8006B4A1468EA4302EA04064F6817F4803F35
:100EE80001D045EA0406664C2660646802EA0406F6
:100EF8004F6817F4003F01D045EA0406604C66606D
:100F0800A46802EA04064F6817F4801F01D045EA76
:100F180004065B4CA660E46822404E6816F4001F85
:100F280001D045EA0402564CE26001330F2B00F26F
:100F3800A28001229A400C6804EA0205AA42F4D170
:100F48004C68661E112C18BF012E01D9122C12D123
:100F580086685F000324BC4026EA0406CC68BC40CF
:100F680034438460466826EA02064C68C4F30012DB
:100F78009A4032434260C2685F000326BE40F6438F
:100F880032408C68BC401443C4604A68122A18BFB7
:100F9800022A13D1DC08083450F824E003F00702D1
:100FA8004FEA820C0F2202FA0CF22EEA020E0A69AC
:100FB80002FA0CF242EA0E0240F8242002681640B7
:100FC8004A6802F00302BA40324302604A6812F0EB
:100FD800805FAAD02B4A546C44F480445464526C09
:100FE80002F480420192019A9C08A61C234A52F8F6
:100FF800267003F0030296000F22B24027EA020788
:10100800214A90423FF45DAF02F58062904222D0BF
:1010180002F58062904220D002F5806290421ED094
:1010280002F5806290421CD002F5806290421AD08C
:1010380002F58062904218D002F58062904216D084
:1010480002F58062904214D002F5806290423FF42B
:1010580036AF0A2236E7012234E7022232E70322BA
:1010680030E704222EE705222CE706222AE707228A
:1010780028E7082226E703B0F0BD70470038014092
:10108800003C0140003802400000024012B9090447
:101098008161704781617047436901EA030221EA6F
:1010A800030141EA024181617047000010B582B036
:1010B8001B4B1A6C42F080521A641B6C03F080536D
:1010C8000193019B174A136843F48033136000F0BF
:1010D80069F80446134B5B6813F4803F08D100F0AD
:1010E80061F8001BB0F57A7FF4D9032002B010BD77
:1010F8000C4A136843F40033136000F053F80446B5
:10110800084B5B6813F4003F07D100F04BF8001B55
:10111800B0F57A7FF4D90320E8E70020E6E700BFBE
:10112800003802400070004010B504460E4B187895
:101138004FF47A73B3FBF0F30C4A1068B0FBF3F08A
:10114800FFF77EFB68B90F2C01D901200AE00022C5
:1011580021464FF0FF30FFF741FB054B1C60002094
:1011680000E0012010BD00BF0000002008000020A2
:101178000400002008B50320FFF71EFB0020FFF73E
:10118800D3FFFFF701FB002008BD0000034A1168E8
:10119800034B1B780B441360704700BF28000020E6
:1011A80000000020014B1868704700BF280000208D
:1011B80038B50446FFF7F6FF0546B4F1FF3F02D005
:1011C800044B1B781C44FFF7EDFF401BA042FAD3E9
:1011D80038BD00BF00000020034AD2F8883043F42D
:1011E8007003C2F88830704700ED00E0DFF834D0B3
:1011F8000D480E490E4A002302E0D458C450043367
:10120800C4188C42F9D30B4A0B4C002301E013603D
:101218000432A242FBD3FFF7DFFFFFF715F8FFF711
:1012280095FA704700000520000000200C000020FF
:10123800801200080C0000202C000020FEE70000AF
:10124800F8B500BFF8BC08BC9E467047F8B500BFAB
:08125800F8BC08BC9E4670477B
:101260000000000000000000010203040607080956
:08127000ECF0FF7F010000001B
:041278003102000837
:04127C00090200085B
:0C12800001000000100000000024F40039
:04000005080011F5E9
:00000001FF
